S0100000466565646261636B2E737265630F
S113000012C021C020C01FC01EC01DC01CC01BC008
S11300101AC0DCC018C017C016C015C014C013C065
S113002012C011C010C011241FBECFE5D4E0DEBF42
S1130030CDBF20E0A0E6B0E001C01D92A837B20712
S1130040E1F71FD03DC1DCCF8FEF81BB12BA089519
S113005086B1876886B93E9A0895369A3699FECF56
S113006084B195B108958FB581608FBD8EB58860D8
S11300708EBD83B7816083BF12BE81E089BF78944F
S11300800895E2DFE5DFEFDF6894DD24D6F8CFEFF3
S1130090D0E00F2EF2E4EF2EF02D0F2EF3E4FF2E1E
S11300A0F02D04E411E480916100853019F410927C
S11300B061000FC08230E9F128F4882351F08130C7
S11300C001F17EC0833009F44CC0843009F461C06E
S11300D077C0D7B8C2DF90936B0080936A0096957F
S11300E0879596958795811521E0920729F090933D
S11300F06F0080936E0064C0D0936F00C0936E0055
S11301005FC017B9AADF90936B0080936A0096953D
S1130110879596958795811521E0920729F090930C
S11301206500809364004CC0D0936500C093640064
S113013047C0E7B892DF90936B0080936A0096956E
S1130140879596958795811521E0920729F09093DC
S113015075008093740034C0D0937500C09374000C
S11301602FC0F7B87ADF90936B0080936A0096955E
S1130170879596958795811521E0920729F09093AC
S11301806D0080936C001CC0D0936D00C0936C0014
S113019017C007B962DF90936B0080936A0096954D
S11301A0879596958795811521E0920729F090937C
S11301B067008093660004C0D0936700C093660014
S11301C0809161008F5F809361006DCF1F920F92C9
S11301D00FB60F9211242F933F938F939F93809187
S11301E060008F5F8093600081112AC080916E004F
S11301F090916F00909373008093720080916400DB
S113020090916500909377008093760080917400BC
S113021090917500909371008093700080916C00B0
S113022090916D00909369008093680080916600BE
S11302309091670090936300809362008FE182BB8A
S11302408091600090E020917200309173008217D9
S1130250930709F490988091600090E020917600D3
S1130260309177008217930709F491988091600088
S113027090E020917000309171008217930709F487
S113028092988091600090E020916800309169001C
S11302908217930709F493988091600090E020916D
S11302A06200309163008217930709F494989F9138
S11302B08F913F912F910F900FBE0F901F90189523
S10702C0F894FFCFDC
S9030000FC
